S01100004C45445F44656C61792E73726563F0
S11300000C942A000C9447000C9447000C9447006D
S11300100C9447000C9447000C9447000C94470040
S11300200C9447000C9447000C9472020C94470003
S11300300C9447000C9447000C9447000C94470020
S11300400C9447000C9447000C9447000C94470010
S11300500C94470011241FBECFE5D8E0DEBFCDBF0E
S113006010E0A0E6B0E0ECE7F5E002C005900D92E8
S1130070A236B107D9F720E0A2E6B0E001C01D9294
S1130080A936B207E1F70E9449000C94BC020C9413
S1130090000080916000909161000E946400809152
S11300A06000909161000E9474008CE291E00E94D3
S11300B04C0280916000909161000E946C0084EF7A
S11300C091E00E944C02EBCF41E0692F0E947C003A
S11300D0843109F481E3089541E0692F0E9472019B
S11300E0843109F482E3089540E0692F0E9472018B
S11300F0843109F483E30895683008F0E7C081305F
S113010009F43FC038F0823009F472C0833009F436
S1130110A6C0DEC0413049F118F0423091F0DAC097
S11301202AB381E090E002C0880F991F6A95E2F734
S11301308095922F98239ABB9BB389238BBB80E035
S1130140089580B78B7F80BF2AB381E090E002C01E
S1130150880F991F6A95E2F7982F909592239ABB7E
S11301609BB3892B8BBB80E008952AB381E090E098
S113017002C0880F991F6A95E2F7822B8ABB80E040
S11301800895413049F118F0423091F0A5C027B3E9
S113019081E090E002C0880F991F6A95E2F780958C
S11301A0922F982397BB98B3892388BB80E0089546
S11301B080B78B7F80BF27B381E090E002C0880FB7
S11301C0991F6A95E2F7982F9095922397BB98B35D
S11301D0892B88BB80E0089527B381E090E002C0BA
S11301E0880F991F6A95E2F7822B87BB80E00895F8
S11301F0413049F118F0423091F070C024B381E0ED
S113020090E002C0880F991F6A95E2F78095922FBB
S1130210982394BB95B3892385BB80E0089580B768
S11302208B7F80BF24B381E090E002C0880F991FC8
S11302306A95E2F7982F9095922394BB95B3892BF6
S113024085BB80E0089524B381E090E002C0880F6C
S1130250991F6A95E2F7822B84BB80E008954130B0
S113026049F118F0423091F03BC021B381E090E0B5
S113027002C0880F991F6A95E2F78095922F982300
S113028091BB9BB389238BBB80E0089580B78B7FA0
S113029080BF21B381E090E002C0880F991F6A9566
S11302A0E2F7982F9095922391BB92B3892B82BB4E
S11302B080E0089521B381E090E002C0880F991F87
S11302C06A95E2F7822B81BB80E0089582E108956C
S11302D082E1089582E1089582E1089582E108951A
S11302E082E10895683008F06BC0813001F130F08C
S11302F08230B1F1833009F44BC064C0423008F05D
S113030063C05BB321E030E0062E02C0220F331F2E
S11303100A94E2F7842F90E002C0880F991F6A952F
S1130320E2F720952523822B8BBB80E00895423091
S113033008F04CC058B321E030E0062E02C0220F72
S1130340331F0A94E2F7842F90E002C0880F991FAC
S11303506A95E2F720952523822B88BB80E00895D7
S11303604230B0F555B321E030E0062E02C0220F32
S1130370331F0A94E2F7842F90E002C0880F991F7C
S11303806A95E2F720952523822B85BB80E00895AA
S1130390423000F552B321E030E0062E02C0220FB5
S11303A0331F0A94E2F7842F90E002C0880F991F4C
S11303B06A95E2F720952523822B82BB80E008957D
S11303C084E1089584E1089584E1089584E1089521
S11303D084E1089584E1089583B78F7B83BF83B755
S11303E0886083BF8FB780688FBF89B7826089BFF9
S11303F003B606FC0BC003B603FE0AC00FB607FE25
S113040009C009B601FC08C081E4089581E4089597
S113041081E4089581E4089580E008958DE78CBF18
S113042083B7816083BF83B7826083BF83B78B7FC9
S113043083BF03B600FE08C003B601FE07C003B6BF
S113044002FE06C082E4089582E4089582E40895D9
S113045080E0089583B78E7F83BF83B78D7F83BF8A
S113046083B78B7F83BF89B78D7F89BF03B600FCB9
S11304700BC003B601FC0AC003B602FC09C009B6EE
S113048001FE08C082E4089582E4089582E4089598
S113049082E4089580E0089520916400213001F100
S11304A021E02093640010926600109265009093FE
S11304B06800809367000E94EC010E940E02209164
S11304C06500309166008091670090916800821702
S11304D09307A8F70E942A021092640080E008950E
S11304E085E408951F920F920FB60F9211242F9353
S11304F03F934F935F936F937F938F939F93AF93A8
S1130500BF93EF93FF9380916500909166000196ED
S11305109093660080936500209165003091660099
S1130520809167009091680028173907A1F48091A1
S1130530620090916300892B71F010926600109212
S1130540650089B78D7F89BF10926400E0916200D5
S1130550F09163000995FF91EF91BF91AF919F9145
S11305608F917F916F915F914F913F912F910F9058
S10F05700FBE0F901F901895F894FFCF59
S105057C010474
S9030000FC
